:1000000071C00000ABC000008CC000008AC00000BE
:1000100088C0000086C0000084C0000082C00000CC
:1000200080C000007EC000007CC000007AC00000DC
:1000300078C0000076C0000074C0000072C00000EC
:1000400070C000006EC000006CC000006AC00000FC
:1000500068C0000066C0000064C0000062C000000C
:1000600060C000005EC000005CC000005AC000001C
:1000700058C0000056C0000054C0000052C000002C
:1000800050C000004EC000004CC000004AC000003C
:1000900048C0000046C0000044C0000042C000004C
:1000A00040C000003EC000003CC000003AC000005C
:1000B00038C0000036C0000034C0000032C000006C
:1000C00030C000002EC000002CC000002AC000007C
:1000D00028C0000026C0000024C0000022C000008C
:1000E00020C0000011241FBECFEFD1E2DEBFCDBF84
:1000F00000E00CBF12E0A0E0B2E0E8EFF1E000E0C9
:100100000BBF02C007900D92A631B107D9F722E0CC
:10011000A6E1B2E001C01D92A831B207E1F702D01A
:1001200069C06ECFE9E6F0E08081816080838081E4
:100130008260808380818460808380818860808306
:100140008FEF84B915B810BA1AB880911602909141
:1001500017028091000290910102F7CF1F920F9237
:100160000FB60F9211240BB60F922F933F938F93DC
:100170009F93EF93FF9380910202882351F1809126
:100180000302882331F180910402811116C021C03D
:100190001092170210921602E0911602F0911702C7
:1001A000EE5FFD4F1082809116029091170201962A
:1001B000909317028093160210C02091160230917E
:1001C000170280910002909101022817390704F765
:1001D000E3CF1092170210921602FF91EF919F91B8
:1001E0008F913F912F910F900BBE0F900FBE0F90EC
:0801F0001F901895F894FFCF51
:1001F80013000100000000000000000000000000E3
:06020800000000000000F0
:00000001FF
